{
  "_format": "hh-sol-artifact-1",
  "contractName": "DCXToken",
  "sourceName": "contracts/tokens/DCXToken.sol",
  "abi": [
    {
      "inputs": [],
      "stateMutability": "nonpayable",
      "type": "constructor"
    },
    {
      "inputs": [],
      "name": "InvalidShortString",
      "type": "error"
    },
    {
      "inputs": [
        {
          "internalType": "string",
          "name": "str",
          "type": "string"
        }
      ],
      "name": "StringTooLong",
      "type": "error"
    },
    {
      "anonymous": false,
      "inputs": [
        {
          "indexed": true,
          "internalType": "address",
          "name": "owner",
          "type": "address"
        },
        {
          "indexed": true,
          "internalType": "address",
          "name": "spender",
          "type": "address"
        },
        {
          "indexed": false,
          "internalType": "uint256",
          "name": "value",
          "type": "uint256"
        }
      ],
      "name": "Approval",
      "type": "event"
    },
    {
      "anonymous": false,
      "inputs": [
        {
          "indexed": true,
          "internalType": "address",
          "name": "delegator",
          "type": "address"
        },
        {
          "indexed": true,
          "internalType": "address",
          "name": "fromDelegate",
          "type": "address"
        },
        {
          "indexed": true,
          "internalType": "address",
          "name": "toDelegate",
          "type": "address"
        }
      ],
      "name": "DelegateChanged",
      "type": "event"
    },
    {
      "anonymous": false,
      "inputs": [
        {
          "indexed": true,
          "internalType": "address",
          "name": "delegate",
          "type": "address"
        },
        {
          "indexed": false,
          "internalType": "uint256",
          "name": "previousBalance",
          "type": "uint256"
        },
        {
          "indexed": false,
          "internalType": "uint256",
          "name": "newBalance",
          "type": "uint256"
        }
      ],
      "name": "DelegateVotesChanged",
      "type": "event"
    },
    {
      "anonymous": false,
      "inputs": [],
      "name": "EIP712DomainChanged",
      "type": "event"
    },
    {
      "anonymous": false,
      "inputs": [
        {
          "indexed": false,
          "internalType": "address",
          "name": "account",
          "type": "address"
        }
      ],
      "name": "Paused",
      "type": "event"
    },
    {
      "anonymous": false,
      "inputs": [
        {
          "indexed": true,
          "internalType": "bytes32",
          "name": "role",
          "type": "bytes32"
        },
        {
          "indexed": true,
          "internalType": "bytes32",
          "name": "previousAdminRole",
          "type": "bytes32"
        },
        {
          "indexed": true,
          "internalType": "bytes32",
          "name": "newAdminRole",
          "type": "bytes32"
        }
      ],
      "name": "RoleAdminChanged",
      "type": "event"
    },
    {
      "anonymous": false,
      "inputs": [
        {
          "indexed": true,
          "internalType": "bytes32",
          "name": "role",
          "type": "bytes32"
        },
        {
          "indexed": true,
          "internalType": "address",
          "name": "account",
          "type": "address"
        },
        {
          "indexed": true,
          "internalType": "address",
          "name": "sender",
          "type": "address"
        }
      ],
      "name": "RoleGranted",
      "type": "event"
    },
    {
      "anonymous": false,
      "inputs": [
        {
          "indexed": true,
          "internalType": "bytes32",
          "name": "role",
          "type": "bytes32"
        },
        {
          "indexed": true,
          "internalType": "address",
          "name": "account",
          "type": "address"
        },
        {
          "indexed": true,
          "internalType": "address",
          "name": "sender",
          "type": "address"
        }
      ],
      "name": "RoleRevoked",
      "type": "event"
    },
    {
      "anonymous": false,
      "inputs": [
        {
          "indexed": true,
          "internalType": "address",
          "name": "from",
          "type": "address"
        },
        {
          "indexed": true,
          "internalType": "address",
          "name": "to",
          "type": "address"
        },
        {
          "indexed": false,
          "internalType": "uint256",
          "name": "value",
          "type": "uint256"
        }
      ],
      "name": "Transfer",
      "type": "event"
    },
    {
      "anonymous": false,
      "inputs": [
        {
          "indexed": false,
          "internalType": "address",
          "name": "account",
          "type": "address"
        }
      ],
      "name": "Unpaused",
      "type": "event"
    },
    {
      "inputs": [],
      "name": "CLOCK_MODE",
      "outputs": [
        {
          "internalType": "string",
          "name": "",
          "type": "string"
        }
      ],
      "stateMutability": "view",
      "type": "function"
    },
    {
      "inputs": [],
      "name": "DEFAULT_ADMIN_ROLE",
      "outputs": [
        {
          "internalType": "bytes32",
          "name": "",
          "type": "bytes32"
        }
      ],
      "stateMutability": "view",
      "type": "function"
    },
    {
      "inputs": [],
      "name": "DOMAIN_SEPARATOR",
      "outputs": [
        {
          "internalType": "bytes32",
          "name": "",
          "type": "bytes32"
        }
      ],
      "stateMutability": "view",
      "type": "function"
    },
    {
      "inputs": [],
      "name": "MINTER_ROLE",
      "outputs": [
        {
          "internalType": "bytes32",
          "name": "",
          "type": "bytes32"
        }
      ],
      "stateMutability": "view",
      "type": "function"
    },
    {
      "inputs": [],
      "name": "PAUSER_ROLE",
      "outputs": [
        {
          "internalType": "bytes32",
          "name": "",
          "type": "bytes32"
        }
      ],
      "stateMutability": "view",
      "type": "function"
    },
    {
      "inputs": [
        {
          "internalType": "address",
          "name": "owner",
          "type": "address"
        },
        {
          "internalType": "address",
          "name": "spender",
          "type": "address"
        }
      ],
      "name": "allowance",
      "outputs": [
        {
          "internalType": "uint256",
          "name": "",
          "type": "uint256"
        }
      ],
      "stateMutability": "view",
      "type": "function"
    },
    {
      "inputs": [
        {
          "internalType": "address",
          "name": "spender",
          "type": "address"
        },
        {
          "internalType": "uint256",
          "name": "amount",
          "type": "uint256"
        }
      ],
      "name": "approve",
      "outputs": [
        {
          "internalType": "bool",
          "name": "",
          "type": "bool"
        }
      ],
      "stateMutability": "nonpayable",
      "type": "function"
    },
    {
      "inputs": [
        {
          "internalType": "address",
          "name": "account",
          "type": "address"
        }
      ],
      "name": "balanceOf",
      "outputs": [
        {
          "internalType": "uint256",
          "name": "",
          "type": "uint256"
        }
      ],
      "stateMutability": "view",
      "type": "function"
    },
    {
      "inputs": [
        {
          "internalType": "uint256",
          "name": "amount",
          "type": "uint256"
        }
      ],
      "name": "burn",
      "outputs": [],
      "stateMutability": "nonpayable",
      "type": "function"
    },
    {
      "inputs": [
        {
          "internalType": "address",
          "name": "account",
          "type": "address"
        },
        {
          "internalType": "uint256",
          "name": "amount",
          "type": "uint256"
        }
      ],
      "name": "burnFrom",
      "outputs": [],
      "stateMutability": "nonpayable",
      "type": "function"
    },
    {
      "inputs": [
        {
          "internalType": "address",
          "name": "account",
          "type": "address"
        },
        {
          "internalType": "uint32",
          "name": "pos",
          "type": "uint32"
        }
      ],
      "name": "checkpoints",
      "outputs": [
        {
          "components": [
            {
              "internalType": "uint32",
              "name": "fromBlock",
              "type": "uint32"
            },
            {
              "internalType": "uint224",
              "name": "votes",
              "type": "uint224"
            }
          ],
          "internalType": "struct ERC20Votes.Checkpoint",
          "name": "",
          "type": "tuple"
        }
      ],
      "stateMutability": "view",
      "type": "function"
    },
    {
      "inputs": [],
      "name": "clock",
      "outputs": [
        {
          "internalType": "uint48",
          "name": "",
          "type": "uint48"
        }
      ],
      "stateMutability": "view",
      "type": "function"
    },
    {
      "inputs": [],
      "name": "decimals",
      "outputs": [
        {
          "internalType": "uint8",
          "name": "",
          "type": "uint8"
        }
      ],
      "stateMutability": "view",
      "type": "function"
    },
    {
      "inputs": [
        {
          "internalType": "address",
          "name": "spender",
          "type": "address"
        },
        {
          "internalType": "uint256",
          "name": "subtractedValue",
          "type": "uint256"
        }
      ],
      "name": "decreaseAllowance",
      "outputs": [
        {
          "internalType": "bool",
          "name": "",
          "type": "bool"
        }
      ],
      "stateMutability": "nonpayable",
      "type": "function"
    },
    {
      "inputs": [
        {
          "internalType": "address",
          "name": "delegatee",
          "type": "address"
        }
      ],
      "name": "delegate",
      "outputs": [],
      "stateMutability": "nonpayable",
      "type": "function"
    },
    {
      "inputs": [
        {
          "internalType": "address",
          "name": "delegatee",
          "type": "address"
        },
        {
          "internalType": "uint256",
          "name": "nonce",
          "type": "uint256"
        },
        {
          "internalType": "uint256",
          "name": "expiry",
          "type": "uint256"
        },
        {
          "internalType": "uint8",
          "name": "v",
          "type": "uint8"
        },
        {
          "internalType": "bytes32",
          "name": "r",
          "type": "bytes32"
        },
        {
          "internalType": "bytes32",
          "name": "s",
          "type": "bytes32"
        }
      ],
      "name": "delegateBySig",
      "outputs": [],
      "stateMutability": "nonpayable",
      "type": "function"
    },
    {
      "inputs": [
        {
          "internalType": "address",
          "name": "account",
          "type": "address"
        }
      ],
      "name": "delegates",
      "outputs": [
        {
          "internalType": "address",
          "name": "",
          "type": "address"
        }
      ],
      "stateMutability": "view",
      "type": "function"
    },
    {
      "inputs": [],
      "name": "eip712Domain",
      "outputs": [
        {
          "internalType": "bytes1",
          "name": "fields",
          "type": "bytes1"
        },
        {
          "internalType": "string",
          "name": "name",
          "type": "string"
        },
        {
          "internalType": "string",
          "name": "version",
          "type": "string"
        },
        {
          "internalType": "uint256",
          "name": "chainId",
          "type": "uint256"
        },
        {
          "internalType": "address",
          "name": "verifyingContract",
          "type": "address"
        },
        {
          "internalType": "bytes32",
          "name": "salt",
          "type": "bytes32"
        },
        {
          "internalType": "uint256[]",
          "name": "extensions",
          "type": "uint256[]"
        }
      ],
      "stateMutability": "view",
      "type": "function"
    },
    {
      "inputs": [],
      "name": "getMaxSupply",
      "outputs": [
        {
          "internalType": "uint256",
          "name": "",
          "type": "uint256"
        }
      ],
      "stateMutability": "pure",
      "type": "function"
    },
    {
      "inputs": [
        {
          "internalType": "uint256",
          "name": "timepoint",
          "type": "uint256"
        }
      ],
      "name": "getPastTotalSupply",
      "outputs": [
        {
          "internalType": "uint256",
          "name": "",
          "type": "uint256"
        }
      ],
      "stateMutability": "view",
      "type": "function"
    },
    {
      "inputs": [
        {
          "internalType": "address",
          "name": "account",
          "type": "address"
        },
        {
          "internalType": "uint256",
          "name": "timepoint",
          "type": "uint256"
        }
      ],
      "name": "getPastVotes",
      "outputs": [
        {
          "internalType": "uint256",
          "name": "",
          "type": "uint256"
        }
      ],
      "stateMutability": "view",
      "type": "function"
    },
    {
      "inputs": [],
      "name": "getRemainingMintableSupply",
      "outputs": [
        {
          "internalType": "uint256",
          "name": "",
          "type": "uint256"
        }
      ],
      "stateMutability": "view",
      "type": "function"
    },
    {
      "inputs": [
        {
          "internalType": "bytes32",
          "name": "role",
          "type": "bytes32"
        }
      ],
      "name": "getRoleAdmin",
      "outputs": [
        {
          "internalType": "bytes32",
          "name": "",
          "type": "bytes32"
        }
      ],
      "stateMutability": "view",
      "type": "function"
    },
    {
      "inputs": [
        {
          "internalType": "address",
          "name": "account",
          "type": "address"
        }
      ],
      "name": "getVotes",
      "outputs": [
        {
          "internalType": "uint256",
          "name": "",
          "type": "uint256"
        }
      ],
      "stateMutability": "view",
      "type": "function"
    },
    {
      "inputs": [
        {
          "internalType": "bytes32",
          "name": "role",
          "type": "bytes32"
        },
        {
          "internalType": "address",
          "name": "account",
          "type": "address"
        }
      ],
      "name": "grantRole",
      "outputs": [],
      "stateMutability": "nonpayable",
      "type": "function"
    },
    {
      "inputs": [
        {
          "internalType": "bytes32",
          "name": "role",
          "type": "bytes32"
        },
        {
          "internalType": "address",
          "name": "account",
          "type": "address"
        }
      ],
      "name": "hasRole",
      "outputs": [
        {
          "internalType": "bool",
          "name": "",
          "type": "bool"
        }
      ],
      "stateMutability": "view",
      "type": "function"
    },
    {
      "inputs": [
        {
          "internalType": "address",
          "name": "spender",
          "type": "address"
        },
        {
          "internalType": "uint256",
          "name": "addedValue",
          "type": "uint256"
        }
      ],
      "name": "increaseAllowance",
      "outputs": [
        {
          "internalType": "bool",
          "name": "",
          "type": "bool"
        }
      ],
      "stateMutability": "nonpayable",
      "type": "function"
    },
    {
      "inputs": [
        {
          "internalType": "address",
          "name": "to",
          "type": "address"
        },
        {
          "internalType": "uint256",
          "name": "amount",
          "type": "uint256"
        }
      ],
      "name": "mint",
      "outputs": [],
      "stateMutability": "nonpayable",
      "type": "function"
    },
    {
      "inputs": [],
      "name": "name",
      "outputs": [
        {
          "internalType": "string",
          "name": "",
          "type": "string"
        }
      ],
      "stateMutability": "view",
      "type": "function"
    },
    {
      "inputs": [
        {
          "internalType": "address",
          "name": "owner",
          "type": "address"
        }
      ],
      "name": "nonces",
      "outputs": [
        {
          "internalType": "uint256",
          "name": "",
          "type": "uint256"
        }
      ],
      "stateMutability": "view",
      "type": "function"
    },
    {
      "inputs": [
        {
          "internalType": "address",
          "name": "account",
          "type": "address"
        }
      ],
      "name": "numCheckpoints",
      "outputs": [
        {
          "internalType": "uint32",
          "name": "",
          "type": "uint32"
        }
      ],
      "stateMutability": "view",
      "type": "function"
    },
    {
      "inputs": [],
      "name": "pause",
      "outputs": [],
      "stateMutability": "nonpayable",
      "type": "function"
    },
    {
      "inputs": [],
      "name": "paused",
      "outputs": [
        {
          "internalType": "bool",
          "name": "",
          "type": "bool"
        }
      ],
      "stateMutability": "view",
      "type": "function"
    },
    {
      "inputs": [
        {
          "internalType": "address",
          "name": "owner",
          "type": "address"
        },
        {
          "internalType": "address",
          "name": "spender",
          "type": "address"
        },
        {
          "internalType": "uint256",
          "name": "value",
          "type": "uint256"
        },
        {
          "internalType": "uint256",
          "name": "deadline",
          "type": "uint256"
        },
        {
          "internalType": "uint8",
          "name": "v",
          "type": "uint8"
        },
        {
          "internalType": "bytes32",
          "name": "r",
          "type": "bytes32"
        },
        {
          "internalType": "bytes32",
          "name": "s",
          "type": "bytes32"
        }
      ],
      "name": "permit",
      "outputs": [],
      "stateMutability": "nonpayable",
      "type": "function"
    },
    {
      "inputs": [
        {
          "internalType": "bytes32",
          "name": "role",
          "type": "bytes32"
        },
        {
          "internalType": "address",
          "name": "account",
          "type": "address"
        }
      ],
      "name": "renounceRole",
      "outputs": [],
      "stateMutability": "nonpayable",
      "type": "function"
    },
    {
      "inputs": [
        {
          "internalType": "bytes32",
          "name": "role",
          "type": "bytes32"
        },
        {
          "internalType": "address",
          "name": "account",
          "type": "address"
        }
      ],
      "name": "revokeRole",
      "outputs": [],
      "stateMutability": "nonpayable",
      "type": "function"
    },
    {
      "inputs": [
        {
          "internalType": "bytes4",
          "name": "interfaceId",
          "type": "bytes4"
        }
      ],
      "name": "supportsInterface",
      "outputs": [
        {
          "internalType": "bool",
          "name": "",
          "type": "bool"
        }
      ],
      "stateMutability": "view",
      "type": "function"
    },
    {
      "inputs": [],
      "name": "symbol",
      "outputs": [
        {
          "internalType": "string",
          "name": "",
          "type": "string"
        }
      ],
      "stateMutability": "view",
      "type": "function"
    },
    {
      "inputs": [],
      "name": "totalSupply",
      "outputs": [
        {
          "internalType": "uint256",
          "name": "",
          "type": "uint256"
        }
      ],
      "stateMutability": "view",
      "type": "function"
    },
    {
      "inputs": [
        {
          "internalType": "address",
          "name": "to",
          "type": "address"
        },
        {
          "internalType": "uint256",
          "name": "amount",
          "type": "uint256"
        }
      ],
      "name": "transfer",
      "outputs": [
        {
          "internalType": "bool",
          "name": "",
          "type": "bool"
        }
      ],
      "stateMutability": "nonpayable",
      "type": "function"
    },
    {
      "inputs": [
        {
          "internalType": "address",
          "name": "from",
          "type": "address"
        },
        {
          "internalType": "address",
          "name": "to",
          "type": "address"
        },
        {
          "internalType": "uint256",
          "name": "amount",
          "type": "uint256"
        }
      ],
      "name": "transferFrom",
      "outputs": [
        {
          "internalType": "bool",
          "name": "",
          "type": "bool"
        }
      ],
      "stateMutability": "nonpayable",
      "type": "function"
    },
    {
      "inputs": [],
      "name": "unpause",
      "outputs": [],
      "stateMutability": "nonpayable",
      "type": "function"
    }
  ],
  "bytecode": "0x6101606040523480156200001257600080fd5b506040518060400160405280600e81526020016d2216a1b637bab22c102a37b5b2b760911b81525080604051806040016040528060018152602001603160f81b8152506040518060400160405280600e81526020016d2216a1b637bab22c102a37b5b2b760911b8152506040518060400160405280600381526020016208886b60eb1b8152508160039081620000a9919062000a5f565b506004620000b8828262000a5f565b50506005805460ff1916905550620000d282600762000218565b61012052620000e381600862000218565b61014052815160208084019190912060e052815190820120610100524660a0526200017160e05161010051604080517f8b73c3c69bb8fe3d512ecc4cf759cc79239f7b179b0ffacaa9a75d522b39400f60208201529081019290925260608201524660808201523060a082015260009060c00160405160208183030381529060405280519060200120905090565b60805250503060c052506200018860003362000251565b620001b47f65d7a28e3265b37a6474929f336521b332c1681b933f6cb9f3376673440d862a3362000251565b620001e07f9f2df0fed2c77648de5860a4cc508cd0818c85b8b8a1ab4ceeef8d981c8956a63362000251565b62000212336064620002006b033b2e3c9fd0803ce8000000601962000b41565b6200020c919062000b5b565b620002f6565b62000c1f565b60006020835110156200023857620002308362000302565b90506200024b565b8162000245848262000a5f565b5060ff90505b92915050565b60008281526006602090815260408083206001600160a01b038516845290915290205460ff16620002f25760008281526006602090815260408083206001600160a01b03851684529091529020805460ff19166001179055620002b13390565b6001600160a01b0316816001600160a01b0316837f2f8788117e7eff1d82e926ec794901d17c78024a50270940304540a733656f0d60405160405180910390a45b5050565b620002f282826200034e565b600080829050601f8151111562000339578260405163305a27a960e01b815260040162000330919062000b7e565b60405180910390fd5b8051620003468262000bce565b179392505050565b6200035a8282620003f6565b6001600160e01b036200036e620004d18216565b1115620003d75760405162461bcd60e51b815260206004820152603060248201527f4552433230566f7465733a20746f74616c20737570706c79207269736b73206f60448201526f766572666c6f77696e6720766f74657360801b606482015260840162000330565b620003f0600d62001048620004d760201b1783620004ec565b50505050565b6001600160a01b0382166200044e5760405162461bcd60e51b815260206004820152601f60248201527f45524332303a206d696e7420746f20746865207a65726f206164647265737300604482015260640162000330565b6200045c6000838362000674565b806002600082825462000470919062000bf3565b90915550506001600160a01b038216600081815260208181526040808320805486019055518481527fddf252ad1be2c89b69c2b068fc378daa952ba7f163c4a11628f55a4df523b3ef910160405180910390a3620002f26000838362000696565b60025490565b6000620004e5828462000bf3565b9392505050565b825460009081908181156200053b5760008781526020902082016000190160408051808201909152905463ffffffff8116825264010000000090046001600160e01b0316602082015262000550565b60408051808201909152600080825260208201525b905080602001516001600160e01b031693506200056e84868860201c565b92506000821180156200059b575062000586620006a3565b65ffffffffffff16816000015163ffffffff16145b15620005e457620005ac83620006b5565b60008881526020902083016000190180546001600160e01b03929092166401000000000263ffffffff9092169190911790556200066a565b8660405180604001604052806200061262000604620006a360201b60201c565b65ffffffffffff1662000724565b63ffffffff1681526020016200062886620006b5565b6001600160e01b0390811690915282546001810184556000938452602093849020835194909301519091166401000000000263ffffffff909316929092179101555b5050935093915050565b6200067e6200078b565b620006918383836001600160e01b038416565b505050565b62000691838383620007d5565b6000620006b04362000809565b905090565b60006001600160e01b03821115620007205760405162461bcd60e51b815260206004820152602760248201527f53616665436173743a2076616c756520646f65736e27742066697420696e20326044820152663234206269747360c81b606482015260840162000330565b5090565b600063ffffffff821115620007205760405162461bcd60e51b815260206004820152602660248201527f53616665436173743a2076616c756520646f65736e27742066697420696e203360448201526532206269747360d01b606482015260840162000330565b60055460ff1615620007d35760405162461bcd60e51b815260206004820152601060248201526f14185d5cd8589b194e881c185d5cd95960821b604482015260640162000330565b565b6001600160a01b038381166000908152600b6020526040808220548584168352912054620006919291821691168362000872565b600065ffffffffffff821115620007205760405162461bcd60e51b815260206004820152602660248201527f53616665436173743a2076616c756520646f65736e27742066697420696e203460448201526538206269747360d01b606482015260840162000330565b816001600160a01b0316836001600160a01b031614158015620008955750600081115b1562000691576001600160a01b0383161562000922576001600160a01b0383166000908152600c6020908152604082208291620008df9190620009ad901b620010541785620004ec565b91509150846001600160a01b031660008051602062003825833981519152838360405162000917929190918252602082015260400190565b60405180910390a250505b6001600160a01b0382161562000691576001600160a01b0382166000908152600c6020908152604082208291620009669190620004d7901b620010481785620004ec565b91509150836001600160a01b03166000805160206200382583398151915283836040516200099e929190918252602082015260400190565b60405180910390a25050505050565b6000620004e5828462000c09565b634e487b7160e01b600052604160045260246000fd5b600181811c90821680620009e657607f821691505b60208210810362000a0757634e487b7160e01b600052602260045260246000fd5b50919050565b601f8211156200069157600081815260208120601f850160051c8101602086101562000a365750805b601f850160051c820191505b8181101562000a575782815560010162000a42565b505050505050565b81516001600160401b0381111562000a7b5762000a7b620009bb565b62000a938162000a8c8454620009d1565b8462000a0d565b602080601f83116001811462000acb576000841562000ab25750858301515b600019600386901b1c1916600185901b17855562000a57565b600085815260208120601f198616915b8281101562000afc5788860151825594840194600190910190840162000adb565b508582101562000b1b5787850151600019600388901b60f8161c191681555b5050505050600190811b01905550565b634e487b7160e01b600052601160045260246000fd5b80820281158282048414176200024b576200024b62000b2b565b60008262000b7957634e487b7160e01b600052601260045260246000fd5b500490565b600060208083528351808285015260005b8181101562000bad5785810183015185820160400152820162000b8f565b506000604082860101526040601f19601f8301168501019250505092915050565b8051602080830151919081101562000a075760001960209190910360031b1b16919050565b808201808211156200024b576200024b62000b2b565b818103818111156200024b576200024b62000b2b565b60805160a05160c05160e051610100516101205161014051612bab62000c7a6000396000610ad301526000610aa80152600061151d015260006114f5015260006114500152600061147a015260006114a40152612bab6000f3fe608060405234801561001057600080fd5b506004361061025e5760003560e01c80636fcfff45116101465780639ab24eb0116100c3578063d505accf11610087578063d505accf1461054d578063d539139314610560578063d547741f14610587578063dd62ed3e1461059a578063e63ab1e9146105ad578063f1127ed8146105d457600080fd5b80639ab24eb0146104f9578063a217fddf1461050c578063a457c2d714610514578063a9059cbb14610527578063c3cda5201461053a57600080fd5b806384b0196e1161010a57806384b0196e146104915780638e539e8c146104ac57806391d14854146104bf57806391ddadf4146104d257806395d89b41146104f157600080fd5b80636fcfff451461041257806370a082311461043a57806379cc6790146104635780637ecebe00146104765780638456cb591461048957600080fd5b806339509351116101df5780634bf5d7e9116101a35780634bf5d7e91461038e5780634c0f38c214610396578063587cde1e146103a85780635c19a95c146103ec5780635c975abb146103ff5780635cf32b371461040a57600080fd5b8063395093511461033a5780633a46b1a81461034d5780633f4ba83a1461036057806340c10f191461036857806342966c681461037b57600080fd5b8063248a9ca311610226578063248a9ca3146102d85780632f2ff15d146102fb578063313ce567146103105780633644e5151461031f57806336568abe1461032757600080fd5b806301ffc9a71461026357806306fdde031461028b578063095ea7b3146102a057806318160ddd146102b357806323b872dd146102c5575b600080fd5b6102766102713660046126a6565b610611565b60405190151581526020015b60405180910390f35b610293610648565b6040516102829190612720565b6102766102ae36600461274f565b6106da565b6002545b604051908152602001610282565b6102766102d3366004612779565b6106f2565b6102b76102e63660046127b5565b60009081526006602052604090206001015490565b61030e6103093660046127ce565b610716565b005b60405160128152602001610282565b6102b7610740565b61030e6103353660046127ce565b61074f565b61027661034836600461274f565b6107d2565b6102b761035b36600461274f565b6107f4565b61030e610879565b61030e61037636600461274f565b6108ae565b61030e6103893660046127b5565b610946565b610293610950565b6b033b2e3c9fd0803ce80000006102b7565b6103d46103b63660046127fa565b6001600160a01b039081166000908152600b60205260409020541690565b6040516001600160a01b039091168152602001610282565b61030e6103fa3660046127fa565b6109e8565b60055460ff16610276565b6102b76109f2565b6104256104203660046127fa565b610a13565b60405163ffffffff9091168152602001610282565b6102b76104483660046127fa565b6001600160a01b031660009081526020819052604090205490565b61030e61047136600461274f565b610a35565b6102b76104843660046127fa565b610a4a565b61030e610a68565b610499610a9a565b6040516102829796959493929190612815565b6102b76104ba3660046127b5565b610b23565b6102766104cd3660046127ce565b610b8a565b6104da610bb5565b60405165ffffffffffff9091168152602001610282565b610293610bc0565b6102b76105073660046127fa565b610bcf565b6102b7600081565b61027661052236600461274f565b610c51565b61027661053536600461274f565b610ccc565b61030e6105483660046128bc565b610cda565b61030e61055b366004612914565b610e10565b6102b77f9f2df0fed2c77648de5860a4cc508cd0818c85b8b8a1ab4ceeef8d981c8956a681565b61030e6105953660046127ce565b610f74565b6102b76105a836600461297e565b610f99565b6102b77f65d7a28e3265b37a6474929f336521b332c1681b933f6cb9f3376673440d862a81565b6105e76105e23660046129a8565b610fc4565b60408051825163ffffffff1681526020928301516001600160e01b03169281019290925201610282565b60006001600160e01b03198216637965db0b60e01b148061064257506301ffc9a760e01b6001600160e01b03198316145b92915050565b606060038054610657906129e8565b80601f0160208091040260200160405190810160405280929190818152602001828054610683906129e8565b80156106d05780601f106106a5576101008083540402835291602001916106d0565b820191906000526020600020905b8154815290600101906020018083116106b357829003601f168201915b5050505050905090565b6000336106e8818585611060565b5060019392505050565b600033610700858285611184565b61070b8585856111fe565b506001949350505050565b600082815260066020526040902060010154610731816113b3565b61073b83836113bd565b505050565b600061074a611443565b905090565b6001600160a01b03811633146107c45760405162461bcd60e51b815260206004820152602f60248201527f416363657373436f6e74726f6c3a2063616e206f6e6c792072656e6f756e636560448201526e103937b632b9903337b91039b2b63360891b60648201526084015b60405180910390fd5b6107ce828261156e565b5050565b6000336106e88185856107e58383610f99565b6107ef9190612a32565b611060565b60006107fe610bb5565b65ffffffffffff1682106108505760405162461bcd60e51b815260206004820152601960248201527804552433230566f7465733a20667574757265206c6f6f6b757603c1b60448201526064016107bb565b6001600160a01b0383166000908152600c6020526040902061087290836115d5565b9392505050565b7f65d7a28e3265b37a6474929f336521b332c1681b933f6cb9f3376673440d862a6108a3816113b3565b6108ab6116be565b50565b7f9f2df0fed2c77648de5860a4cc508cd0818c85b8b8a1ab4ceeef8d981c8956a66108d8816113b3565b6b033b2e3c9fd0803ce8000000826108ef60025490565b6108f99190612a32565b111561093c5760405162461bcd60e51b815260206004820152601260248201527145786365656473206d617820737570706c7960701b60448201526064016107bb565b61073b8383611710565b6108ab338261171a565b60604361095b610bb5565b65ffffffffffff16146109b05760405162461bcd60e51b815260206004820152601d60248201527f4552433230566f7465733a2062726f6b656e20636c6f636b206d6f646500000060448201526064016107bb565b5060408051808201909152601d81527f6d6f64653d626c6f636b6e756d6265722666726f6d3d64656661756c74000000602082015290565b6108ab3382611724565b60006109fd60025490565b61074a906b033b2e3c9fd0803ce8000000612a45565b6001600160a01b0381166000908152600c60205260408120546106429061179d565b610a40823383611184565b6107ce828261171a565b6001600160a01b038116600090815260096020526040812054610642565b7f65d7a28e3265b37a6474929f336521b332c1681b933f6cb9f3376673440d862a610a92816113b3565b6108ab611806565b600060608082808083610ace7f00000000000000000000000000000000000000000000000000000000000000006007611843565b610af97f00000000000000000000000000000000000000000000000000000000000000006008611843565b60408051600080825260208201909252600f60f81b9b939a50919850469750309650945092509050565b6000610b2d610bb5565b65ffffffffffff168210610b7f5760405162461bcd60e51b815260206004820152601960248201527804552433230566f7465733a20667574757265206c6f6f6b757603c1b60448201526064016107bb565b610642600d836115d5565b60009182526006602090815260408084206001600160a01b0393909316845291905290205460ff1690565b600061074a436118ee565b606060048054610657906129e8565b6001600160a01b0381166000908152600c60205260408120548015610c3e576001600160a01b0383166000908152600c6020526040902080546000198301908110610c1c57610c1c612a6e565b60009182526020909120015464010000000090046001600160e01b0316610c41565b60005b6001600160e01b03169392505050565b60003381610c5f8286610f99565b905083811015610cbf5760405162461bcd60e51b815260206004820152602560248201527f45524332303a2064656372656173656420616c6c6f77616e63652062656c6f77604482015264207a65726f60d81b60648201526084016107bb565b61070b8286868403611060565b6000336106e88185856111fe565b83421115610d2a5760405162461bcd60e51b815260206004820152601d60248201527f4552433230566f7465733a207369676e6174757265206578706972656400000060448201526064016107bb565b604080517fe48329057bfd03d55e49b547132e39cffd9c1820ad7b9d4c5307691425d15adf60208201526001600160a01b038816918101919091526060810186905260808101859052600090610da490610d9c9060a00160405160208183030381529060405280519060200120611955565b858585611982565b9050610daf816119aa565b8614610dfd5760405162461bcd60e51b815260206004820152601960248201527f4552433230566f7465733a20696e76616c6964206e6f6e63650000000000000060448201526064016107bb565b610e078188611724565b50505050505050565b83421115610e605760405162461bcd60e51b815260206004820152601d60248201527f45524332305065726d69743a206578706972656420646561646c696e6500000060448201526064016107bb565b60007f6e71edae12b1b97f4d1f60370fef10105fa2faae0126114a169c64845d6126c9888888610e8f8c6119aa565b6040805160208101969096526001600160a01b0394851690860152929091166060840152608083015260a082015260c0810186905260e0016040516020818303038152906040528051906020012090506000610eea82611955565b90506000610efa82878787611982565b9050896001600160a01b0316816001600160a01b031614610f5d5760405162461bcd60e51b815260206004820152601e60248201527f45524332305065726d69743a20696e76616c6964207369676e6174757265000060448201526064016107bb565b610f688a8a8a611060565b50505050505050505050565b600082815260066020526040902060010154610f8f816113b3565b61073b838361156e565b6001600160a01b03918216600090815260016020908152604080832093909416825291909152205490565b60408051808201909152600080825260208201526001600160a01b0383166000908152600c60205260409020805463ffffffff841690811061100857611008612a6e565b60009182526020918290206040805180820190915291015463ffffffff8116825264010000000090046001600160e01b0316918101919091529392505050565b60006108728284612a32565b60006108728284612a45565b6001600160a01b0383166110c25760405162461bcd60e51b8152602060048201526024808201527f45524332303a20617070726f76652066726f6d20746865207a65726f206164646044820152637265737360e01b60648201526084016107bb565b6001600160a01b0382166111235760405162461bcd60e51b815260206004820152602260248201527f45524332303a20617070726f766520746f20746865207a65726f206164647265604482015261737360f01b60648201526084016107bb565b6001600160a01b0383811660008181526001602090815260408083209487168084529482529182902085905590518481527f8c5be1e5ebec7d5bd14f71427d1e84f3dd0314c0f7b2291e5b200ac8c7c3b925910160405180910390a3505050565b60006111908484610f99565b905060001981146111f857818110156111eb5760405162461bcd60e51b815260206004820152601d60248201527f45524332303a20696e73756666696369656e7420616c6c6f77616e636500000060448201526064016107bb565b6111f88484848403611060565b50505050565b6001600160a01b0383166112625760405162461bcd60e51b815260206004820152602560248201527f45524332303a207472616e736665722066726f6d20746865207a65726f206164604482015264647265737360d81b60648201526084016107bb565b6001600160a01b0382166112c45760405162461bcd60e51b815260206004820152602360248201527f45524332303a207472616e7366657220746f20746865207a65726f206164647260448201526265737360e81b60648201526084016107bb565b6112cf8383836119d2565b6001600160a01b038316600090815260208190526040902054818110156113475760405162461bcd60e51b815260206004820152602660248201527f45524332303a207472616e7366657220616d6f756e7420657863656564732062604482015265616c616e636560d01b60648201526084016107bb565b6001600160a01b03848116600081815260208181526040808320878703905593871680835291849020805487019055925185815290927fddf252ad1be2c89b69c2b068fc378daa952ba7f163c4a11628f55a4df523b3ef910160405180910390a36111f88484846119da565b6108ab81336119e5565b6113c78282610b8a565b6107ce5760008281526006602090815260408083206001600160a01b03851684529091529020805460ff191660011790556113ff3390565b6001600160a01b0316816001600160a01b0316837f2f8788117e7eff1d82e926ec794901d17c78024a50270940304540a733656f0d60405160405180910390a45050565b6000306001600160a01b037f00000000000000000000000000000000000000000000000000000000000000001614801561149c57507f000000000000000000000000000000000000000000000000000000000000000046145b156114c657507f000000000000000000000000000000000000000000000000000000000000000090565b61074a604080517f8b73c3c69bb8fe3d512ecc4cf759cc79239f7b179b0ffacaa9a75d522b39400f60208201527f0000000000000000000000000000000000000000000000000000000000000000918101919091527f000000000000000000000000000000000000000000000000000000000000000060608201524660808201523060a082015260009060c00160405160208183030381529060405280519060200120905090565b6115788282610b8a565b156107ce5760008281526006602090815260408083206001600160a01b0385168085529252808320805460ff1916905551339285917ff6391f5c32d9c69d2a47ea670b442974b53935d1edc7fd64eb21e047a839171b9190a45050565b81546000908181600581111561162f5760006115f084611a3e565b6115fa9085612a45565b600088815260209020909150869082015463ffffffff16111561161f5780915061162d565b61162a816001612a32565b92505b505b8082101561167c5760006116438383611b26565b600088815260209020909150869082015463ffffffff16111561166857809150611676565b611673816001612a32565b92505b5061162f565b80156116a8576000868152602090208101600019015464010000000090046001600160e01b03166116ab565b60005b6001600160e01b03169695505050505050565b6116c6611b41565b6005805460ff191690557f5db9ee0a495bf2e6ff9c91a7834c1ba4fdd244a5e8aa4e537bd38aeae4b073aa335b6040516001600160a01b03909116815260200160405180910390a1565b6107ce8282611b8c565b6107ce8282611c16565b6001600160a01b038281166000818152600b60208181526040808420805485845282862054949093528787166001600160a01b03198416811790915590519190951694919391928592917f3134e8a2e6d97e929a7e54011ea5485d7d196dd5f0ba4d4ef95803e8e3fc257f9190a46111f8828483611c2e565b600063ffffffff8211156118025760405162461bcd60e51b815260206004820152602660248201527f53616665436173743a2076616c756520646f65736e27742066697420696e203360448201526532206269747360d01b60648201526084016107bb565b5090565b61180e611d6b565b6005805460ff191660011790557f62e78cea01bee320cd4e420270b5ea74000d11b0c9f74754ebdbfc544b05a2586116f33390565b606060ff831461185d5761185683611db1565b9050610642565b818054611869906129e8565b80601f0160208091040260200160405190810160405280929190818152602001828054611895906129e8565b80156118e25780601f106118b7576101008083540402835291602001916118e2565b820191906000526020600020905b8154815290600101906020018083116118c557829003601f168201915b50505050509050610642565b600065ffffffffffff8211156118025760405162461bcd60e51b815260206004820152602660248201527f53616665436173743a2076616c756520646f65736e27742066697420696e203460448201526538206269747360d01b60648201526084016107bb565b6000610642611962611443565b8360405161190160f01b8152600281019290925260228201526042902090565b600080600061199387878787611df0565b915091506119a081611eb4565b5095945050505050565b6001600160a01b03811660009081526009602052604090208054600181018255905b50919050565b61073b611d6b565b61073b838383611ffe565b6119ef8282610b8a565b6107ce576119fc81612030565b611a07836020612042565b604051602001611a18929190612a84565b60408051601f198184030181529082905262461bcd60e51b82526107bb91600401612720565b600081600003611a5057506000919050565b60006001611a5d846121de565b901c6001901b90506001818481611a7657611a76612af9565b048201901c90506001818481611a8e57611a8e612af9565b048201901c90506001818481611aa657611aa6612af9565b048201901c90506001818481611abe57611abe612af9565b048201901c90506001818481611ad657611ad6612af9565b048201901c90506001818481611aee57611aee612af9565b048201901c90506001818481611b0657611b06612af9565b048201901c905061087281828581611b2057611b20612af9565b04612272565b6000611b356002848418612b0f565b61087290848416612a32565b60055460ff16611b8a5760405162461bcd60e51b815260206004820152601460248201527314185d5cd8589b194e881b9bdd081c185d5cd95960621b60448201526064016107bb565b565b611b968282612288565b6002546001600160e01b031015611c085760405162461bcd60e51b815260206004820152603060248201527f4552433230566f7465733a20746f74616c20737570706c79207269736b73206f60448201526f766572666c6f77696e6720766f74657360801b60648201526084016107bb565b6111f8600d6110488361235b565b611c2082826124d0565b6111f8600d6110548361235b565b816001600160a01b0316836001600160a01b031614158015611c505750600081115b1561073b576001600160a01b03831615611cde576001600160a01b0383166000908152600c602052604081208190611c8b906110548561235b565b91509150846001600160a01b03167fdec2bacdd2f05b59de34da9b523dff8be42e5e38e818c82fdb0bae774387a7248383604051611cd3929190918252602082015260400190565b60405180910390a250505b6001600160a01b0382161561073b576001600160a01b0382166000908152600c602052604081208190611d14906110488561235b565b91509150836001600160a01b03167fdec2bacdd2f05b59de34da9b523dff8be42e5e38e818c82fdb0bae774387a7248383604051611d5c929190918252602082015260400190565b60405180910390a25050505050565b60055460ff1615611b8a5760405162461bcd60e51b815260206004820152601060248201526f14185d5cd8589b194e881c185d5cd95960821b60448201526064016107bb565b60606000611dbe83612615565b604080516020808252818301909252919250600091906020820181803683375050509182525060208101929092525090565b6000807f7fffffffffffffffffffffffffffffff5d576e7357a4501ddfe92f46681b20a0831115611e275750600090506003611eab565b6040805160008082526020820180845289905260ff881692820192909252606081018690526080810185905260019060a0016020604051602081039080840390855afa158015611e7b573d6000803e3d6000fd5b5050604051601f1901519150506001600160a01b038116611ea457600060019250925050611eab565b9150600090505b94509492505050565b6000816004811115611ec857611ec8612b31565b03611ed05750565b6001816004811115611ee457611ee4612b31565b03611f315760405162461bcd60e51b815260206004820152601860248201527f45434453413a20696e76616c6964207369676e6174757265000000000000000060448201526064016107bb565b6002816004811115611f4557611f45612b31565b03611f925760405162461bcd60e51b815260206004820152601f60248201527f45434453413a20696e76616c6964207369676e6174757265206c656e6774680060448201526064016107bb565b6003816004811115611fa657611fa6612b31565b036108ab5760405162461bcd60e51b815260206004820152602260248201527f45434453413a20696e76616c6964207369676e6174757265202773272076616c604482015261756560f01b60648201526084016107bb565b6001600160a01b038381166000908152600b602052604080822054858416835291205461073b92918216911683611c2e565b60606106426001600160a01b03831660145b60606000612051836002612b47565b61205c906002612a32565b67ffffffffffffffff81111561207457612074612a58565b6040519080825280601f01601f19166020018201604052801561209e576020820181803683370190505b509050600360fc1b816000815181106120b9576120b9612a6e565b60200101906001600160f81b031916908160001a905350600f60fb1b816001815181106120e8576120e8612a6e565b60200101906001600160f81b031916908160001a905350600061210c846002612b47565b612117906001612a32565b90505b600181111561218f576f181899199a1a9b1b9c1cb0b131b232b360811b85600f166010811061214b5761214b612a6e565b1a60f81b82828151811061216157612161612a6e565b60200101906001600160f81b031916908160001a90535060049490941c9361218881612b5e565b905061211a565b5083156108725760405162461bcd60e51b815260206004820181905260248201527f537472696e67733a20686578206c656e67746820696e73756666696369656e7460448201526064016107bb565b600080608083901c156121f357608092831c92015b604083901c1561220557604092831c92015b602083901c1561221757602092831c92015b601083901c1561222957601092831c92015b600883901c1561223b57600892831c92015b600483901c1561224d57600492831c92015b600283901c1561225f57600292831c92015b600183901c156106425760010192915050565b60008183106122815781610872565b5090919050565b6001600160a01b0382166122de5760405162461bcd60e51b815260206004820152601f60248201527f45524332303a206d696e7420746f20746865207a65726f20616464726573730060448201526064016107bb565b6122ea600083836119d2565b80600260008282546122fc9190612a32565b90915550506001600160a01b038216600081815260208181526040808320805486019055518481527fddf252ad1be2c89b69c2b068fc378daa952ba7f163c4a11628f55a4df523b3ef910160405180910390a36107ce600083836119da565b825460009081908181156123a85760008781526020902082016000190160408051808201909152905463ffffffff8116825264010000000090046001600160e01b031660208201526123bd565b60408051808201909152600080825260208201525b905080602001516001600160e01b031693506123dd84868863ffffffff16565b925060008211801561240757506123f2610bb5565b65ffffffffffff16816000015163ffffffff16145b1561244c576124158361263d565b60008881526020902083016000190180546001600160e01b03929092166401000000000263ffffffff9092169190911790556124c6565b866040518060400160405280612470612463610bb5565b65ffffffffffff1661179d565b63ffffffff1681526020016124848661263d565b6001600160e01b0390811690915282546001810184556000938452602093849020835194909301519091166401000000000263ffffffff909316929092179101555b5050935093915050565b6001600160a01b0382166125305760405162461bcd60e51b815260206004820152602160248201527f45524332303a206275726e2066726f6d20746865207a65726f206164647265736044820152607360f81b60648201526084016107bb565b61253c826000836119d2565b6001600160a01b038216600090815260208190526040902054818110156125b05760405162461bcd60e51b815260206004820152602260248201527f45524332303a206275726e20616d6f756e7420657863656564732062616c616e604482015261636560f01b60648201526084016107bb565b6001600160a01b0383166000818152602081815260408083208686039055600280548790039055518581529192917fddf252ad1be2c89b69c2b068fc378daa952ba7f163c4a11628f55a4df523b3ef910160405180910390a361073b836000846119da565b600060ff8216601f81111561064257604051632cd44ac360e21b815260040160405180910390fd5b60006001600160e01b038211156118025760405162461bcd60e51b815260206004820152602760248201527f53616665436173743a2076616c756520646f65736e27742066697420696e20326044820152663234206269747360c81b60648201526084016107bb565b6000602082840312156126b857600080fd5b81356001600160e01b03198116811461087257600080fd5b60005b838110156126eb5781810151838201526020016126d3565b50506000910152565b6000815180845261270c8160208601602086016126d0565b601f01601f19169290920160200192915050565b60208152600061087260208301846126f4565b80356001600160a01b038116811461274a57600080fd5b919050565b6000806040838503121561276257600080fd5b61276b83612733565b946020939093013593505050565b60008060006060848603121561278e57600080fd5b61279784612733565b92506127a560208501612733565b9150604084013590509250925092565b6000602082840312156127c757600080fd5b5035919050565b600080604083850312156127e157600080fd5b823591506127f160208401612733565b90509250929050565b60006020828403121561280c57600080fd5b61087282612733565b60ff60f81b881681526000602060e08184015261283560e084018a6126f4565b8381036040850152612847818a6126f4565b606085018990526001600160a01b038816608086015260a0850187905284810360c0860152855180825283870192509083019060005b818110156128995783518352928401929184019160010161287d565b50909c9b505050505050505050505050565b803560ff8116811461274a57600080fd5b60008060008060008060c087890312156128d557600080fd5b6128de87612733565b955060208701359450604087013593506128fa606088016128ab565b92506080870135915060a087013590509295509295509295565b600080600080600080600060e0888a03121561292f57600080fd5b61293888612733565b965061294660208901612733565b95506040880135945060608801359350612962608089016128ab565b925060a0880135915060c0880135905092959891949750929550565b6000806040838503121561299157600080fd5b61299a83612733565b91506127f160208401612733565b600080604083850312156129bb57600080fd5b6129c483612733565b9150602083013563ffffffff811681146129dd57600080fd5b809150509250929050565b600181811c908216806129fc57607f821691505b6020821081036119cc57634e487b7160e01b600052602260045260246000fd5b634e487b7160e01b600052601160045260246000fd5b8082018082111561064257610642612a1c565b8181038181111561064257610642612a1c565b634e487b7160e01b600052604160045260246000fd5b634e487b7160e01b600052603260045260246000fd5b7f416363657373436f6e74726f6c3a206163636f756e7420000000000000000000815260008351612abc8160178501602088016126d0565b7001034b99036b4b9b9b4b733903937b6329607d1b6017918401918201528351612aed8160288401602088016126d0565b01602801949350505050565b634e487b7160e01b600052601260045260246000fd5b600082612b2c57634e487b7160e01b600052601260045260246000fd5b500490565b634e487b7160e01b600052602160045260246000fd5b808202811582820484141761064257610642612a1c565b600081612b6d57612b6d612a1c565b50600019019056fea26469706673582212209045d4c7fe5b621f018b093609c021acc76997b3c8301a03cf6757849b1c0b8364736f6c63430008140033dec2bacdd2f05b59de34da9b523dff8be42e5e38e818c82fdb0bae774387a724",
  "linkReferences": {},
  "deployedLinkReferences": {}
}