{
  "_format": "hh-sol-artifact-1",
  "contractName": "EscrowManager",
  "sourceName": "contracts/core/EscrowManager.sol",
  "abi": [
    {
      "anonymous": false,
      "inputs": [
        {
          "indexed": true,
          "internalType": "uint256",
          "name": "escrowId",
          "type": "uint256"
        },
        {
          "indexed": true,
          "internalType": "address",
          "name": "consumer",
          "type": "address"
        },
        {
          "indexed": true,
          "internalType": "address",
          "name": "provider",
          "type": "address"
        },
        {
          "indexed": false,
          "internalType": "uint256",
          "name": "amount",
          "type": "uint256"
        }
      ],
      "name": "EscrowCreated",
      "type": "event"
    },
    {
      "anonymous": false,
      "inputs": [
        {
          "indexed": true,
          "internalType": "uint256",
          "name": "escrowId",
          "type": "uint256"
        },
        {
          "indexed": false,
          "internalType": "uint256",
          "name": "amount",
          "type": "uint256"
        }
      ],
      "name": "EscrowRefunded",
      "type": "event"
    },
    {
      "anonymous": false,
      "inputs": [
        {
          "indexed": true,
          "internalType": "uint256",
          "name": "escrowId",
          "type": "uint256"
        },
        {
          "indexed": false,
          "internalType": "uint256",
          "name": "amount",
          "type": "uint256"
        }
      ],
      "name": "EscrowReleased",
      "type": "event"
    },
    {
      "anonymous": false,
      "inputs": [
        {
          "indexed": true,
          "internalType": "address",
          "name": "previousOwner",
          "type": "address"
        },
        {
          "indexed": true,
          "internalType": "address",
          "name": "newOwner",
          "type": "address"
        }
      ],
      "name": "OwnershipTransferred",
      "type": "event"
    },
    {
      "inputs": [
        {
          "internalType": "address",
          "name": "_provider",
          "type": "address"
        },
        {
          "internalType": "uint256",
          "name": "_duration",
          "type": "uint256"
        }
      ],
      "name": "createEscrow",
      "outputs": [
        {
          "internalType": "uint256",
          "name": "",
          "type": "uint256"
        }
      ],
      "stateMutability": "payable",
      "type": "function"
    },
    {
      "inputs": [],
      "name": "escrowCounter",
      "outputs": [
        {
          "internalType": "uint256",
          "name": "",
          "type": "uint256"
        }
      ],
      "stateMutability": "view",
      "type": "function"
    },
    {
      "inputs": [
        {
          "internalType": "uint256",
          "name": "",
          "type": "uint256"
        }
      ],
      "name": "escrows",
      "outputs": [
        {
          "internalType": "uint256",
          "name": "id",
          "type": "uint256"
        },
        {
          "internalType": "address",
          "name": "consumer",
          "type": "address"
        },
        {
          "internalType": "address",
          "name": "provider",
          "type": "address"
        },
        {
          "internalType": "uint256",
          "name": "amount",
          "type": "uint256"
        },
        {
          "internalType": "uint256",
          "name": "startTime",
          "type": "uint256"
        },
        {
          "internalType": "uint256",
          "name": "duration",
          "type": "uint256"
        },
        {
          "internalType": "bool",
          "name": "isReleased",
          "type": "bool"
        },
        {
          "internalType": "bool",
          "name": "isRefunded",
          "type": "bool"
        }
      ],
      "stateMutability": "view",
      "type": "function"
    },
    {
      "inputs": [
        {
          "internalType": "uint256",
          "name": "_escrowId",
          "type": "uint256"
        }
      ],
      "name": "getEscrow",
      "outputs": [
        {
          "internalType": "address",
          "name": "consumer",
          "type": "address"
        },
        {
          "internalType": "address",
          "name": "provider",
          "type": "address"
        },
        {
          "internalType": "uint256",
          "name": "amount",
          "type": "uint256"
        },
        {
          "internalType": "uint256",
          "name": "startTime",
          "type": "uint256"
        },
        {
          "internalType": "uint256",
          "name": "duration",
          "type": "uint256"
        },
        {
          "internalType": "bool",
          "name": "isReleased",
          "type": "bool"
        },
        {
          "internalType": "bool",
          "name": "isRefunded",
          "type": "bool"
        }
      ],
      "stateMutability": "view",
      "type": "function"
    },
    {
      "inputs": [
        {
          "internalType": "uint256",
          "name": "_escrowId",
          "type": "uint256"
        }
      ],
      "name": "isEscrowExpired",
      "outputs": [
        {
          "internalType": "bool",
          "name": "",
          "type": "bool"
        }
      ],
      "stateMutability": "view",
      "type": "function"
    },
    {
      "inputs": [],
      "name": "owner",
      "outputs": [
        {
          "internalType": "address",
          "name": "",
          "type": "address"
        }
      ],
      "stateMutability": "view",
      "type": "function"
    },
    {
      "inputs": [
        {
          "internalType": "uint256",
          "name": "_escrowId",
          "type": "uint256"
        }
      ],
      "name": "refundEscrow",
      "outputs": [],
      "stateMutability": "nonpayable",
      "type": "function"
    },
    {
      "inputs": [
        {
          "internalType": "uint256",
          "name": "_escrowId",
          "type": "uint256"
        }
      ],
      "name": "releaseEscrow",
      "outputs": [],
      "stateMutability": "nonpayable",
      "type": "function"
    },
    {
      "inputs": [],
      "name": "renounceOwnership",
      "outputs": [],
      "stateMutability": "nonpayable",
      "type": "function"
    },
    {
      "inputs": [
        {
          "internalType": "address",
          "name": "newOwner",
          "type": "address"
        }
      ],
      "name": "transferOwnership",
      "outputs": [],
      "stateMutability": "nonpayable",
      "type": "function"
    },
    {
      "stateMutability": "payable",
      "type": "receive"
    }
  ],
  "bytecode": "0x608060405234801561001057600080fd5b50600160005561001f33610024565b610076565b600180546001600160a01b038381166001600160a01b0319831681179093556040519116919082907f8be0079c531659141344cd1fd0a4f28419497f9722a3daafe3b4186f6b6457e090600090a35050565b610d29806100856000396000f3fe6080604052600436106100955760003560e01c80638da5cb5b116100595780638da5cb5b146102aa5780639bb4ea1a146102d2578063c7ceafea14610302578063ed65316414610318578063f2fde38b1461033857600080fd5b8063012f52ee146100a1578063356f9dfd146101615780634614874e14610183578063715018a6146101a45780637d19e596146101b957600080fd5b3661009c57005b600080fd5b3480156100ad57600080fd5b506101116100bc366004610c17565b6002602081905260009182526040909120805460018201549282015460038301546004840154600585015460069095015493956001600160a01b03908116959316939192909160ff8082169161010090041688565b604080519889526001600160a01b0397881660208a015295909616948701949094526060860192909252608085015260a0840152151560c0830152151560e0820152610100015b60405180910390f35b34801561016d57600080fd5b5061018161017c366004610c17565b610358565b005b610196610191366004610c4c565b6104c2565b604051908152602001610158565b3480156101b057600080fd5b5061018161075b565b3480156101c557600080fd5b506102666101d4366004610c17565b600090815260026020818152604092839020835161010080820186528254825260018301546001600160a01b0390811694830185905294830154909416948101859052600382015460608201819052600483015460808301819052600584015460a0840181905260069094015460ff808216151560c086018190529790910416151560e0909301839052939690949190565b604080516001600160a01b0398891681529790961660208801529486019390935260608501919091526080840152151560a0830152151560c082015260e001610158565b3480156102b657600080fd5b506001546040516001600160a01b039091168152602001610158565b3480156102de57600080fd5b506102f26102ed366004610c17565b61076f565b6040519015158152602001610158565b34801561030e57600080fd5b5061019660035481565b34801561032457600080fd5b50610181610333366004610c17565b610817565b34801561034457600080fd5b50610181610353366004610c76565b6109b4565b610360610a2a565b610368610a83565b6000818152600260205260409020600681015460ff16156103ca5760405162461bcd60e51b8152602060048201526017602482015276115cd8dc9bddc8185b1c9958591e481c995b19585cd959604a1b60448201526064015b60405180910390fd5b6006810154610100900460ff16156104245760405162461bcd60e51b815260206004820152601760248201527f457363726f7720616c726561647920726566756e64656400000000000000000060448201526064016103c1565b60068101805461ff001916610100179055600181015460038201546040516001600160a01b039092169181156108fc0291906000818181858888f19350505050158015610475573d6000803e3d6000fd5b50817f8e09fed7623ad9f8d5a701dd9f3233197147d0043c564dfb1a6c0023ab568c2082600301546040516104ac91815260200190565b60405180910390a2506104bf6001600055565b50565b60006104cc610a2a565b6000341161050f5760405162461bcd60e51b815260206004820152601060248201526f14185e5b595b9d081c995c5d5a5c995960821b60448201526064016103c1565b6001600160a01b0383166105655760405162461bcd60e51b815260206004820152601860248201527f496e76616c69642070726f76696465722061646472657373000000000000000060448201526064016103c1565b600082116105b55760405162461bcd60e51b815260206004820152601f60248201527f4475726174696f6e206d7573742062652067726561746572207468616e20300060448201526064016103c1565b6003546105c3906001610add565b6003819055506040518061010001604052806003548152602001336001600160a01b03168152602001846001600160a01b03168152602001348152602001428152602001838152602001600015158152602001600015158152506002600060035481526020019081526020016000206000820151816000015560208201518160010160006101000a8154816001600160a01b0302191690836001600160a01b0316021790555060408201518160020160006101000a8154816001600160a01b0302191690836001600160a01b03160217905550606082015181600301556080820151816004015560a0820151816005015560c08201518160060160006101000a81548160ff02191690831515021790555060e08201518160060160016101000a81548160ff021916908315150217905550905050826001600160a01b0316336001600160a01b03166003547f9405ad0a6208539879349284d71265479b1623846f70303da1f9890d6e8c10a73460405161073f91815260200190565b60405180910390a4506003546107556001600055565b92915050565b610763610a83565b61076d6000610b43565b565b6000818152600260208181526040808420815161010080820184528254825260018301546001600160a01b039081169583019590955294820154909316918301919091526003810154606083015260048101546080830152600581015460a0830181905260069091015460ff808216151560c0850152939004909216151560e08201529061080e9061080390610e10610b95565b608083015190610add565b42119392505050565b61081f610a2a565b6000818152600260205260409020600681015460ff161561087c5760405162461bcd60e51b8152602060048201526017602482015276115cd8dc9bddc8185b1c9958591e481c995b19585cd959604a1b60448201526064016103c1565b6006810154610100900460ff16156108cc5760405162461bcd60e51b8152602060048201526013602482015272115cd8dc9bddc81dd85cc81c99599d5b991959606a1b60448201526064016103c1565b60018101546001600160a01b03163314806108f157506001546001600160a01b031633145b61092e5760405162461bcd60e51b815260206004820152600e60248201526d139bdd08185d5d1a1bdc9a5e995960921b60448201526064016103c1565b60068101805460ff19166001179055600281015460038201546040516001600160a01b039092169181156108fc0291906000818181858888f1935050505015801561097d573d6000803e3d6000fd5b50817f10ce17ae7e78eb775b13182ea618b201c2c81afc8fee55c287291f8686f17eac82600301546040516104ac91815260200190565b6109bc610a83565b6001600160a01b038116610a215760405162461bcd60e51b815260206004820152602660248201527f4f776e61626c653a206e6577206f776e657220697320746865207a65726f206160448201526564647265737360d01b60648201526084016103c1565b6104bf81610b43565b600260005403610a7c5760405162461bcd60e51b815260206004820152601f60248201527f5265656e7472616e637947756172643a207265656e7472616e742063616c6c0060448201526064016103c1565b6002600055565b6001546001600160a01b0316331461076d5760405162461bcd60e51b815260206004820181905260248201527f4f776e61626c653a2063616c6c6572206973206e6f7420746865206f776e657260448201526064016103c1565b600080610aea8385610ca7565b905083811015610b3c5760405162461bcd60e51b815260206004820152601b60248201527f536166654d6174683a206164646974696f6e206f766572666c6f77000000000060448201526064016103c1565b9392505050565b600180546001600160a01b038381166001600160a01b0319831681179093556040519116919082907f8be0079c531659141344cd1fd0a4f28419497f9722a3daafe3b4186f6b6457e090600090a35050565b600082600003610ba757506000610755565b6000610bb38385610cba565b905082610bc08583610cd1565b14610b3c5760405162461bcd60e51b815260206004820152602160248201527f536166654d6174683a206d756c7469706c69636174696f6e206f766572666c6f6044820152607760f81b60648201526084016103c1565b600060208284031215610c2957600080fd5b5035919050565b80356001600160a01b0381168114610c4757600080fd5b919050565b60008060408385031215610c5f57600080fd5b610c6883610c30565b946020939093013593505050565b600060208284031215610c8857600080fd5b610b3c82610c30565b634e487b7160e01b600052601160045260246000fd5b8082018082111561075557610755610c91565b808202811582820484141761075557610755610c91565b600082610cee57634e487b7160e01b600052601260045260246000fd5b50049056fea2646970667358221220d764efaf3c8cf395e243c9f417839a19fd40f756da32f05cbf930c23d694b11264736f6c63430008140033",
  "linkReferences": {},
  "deployedLinkReferences": {}
}