{
  "_format": "hh-sol-artifact-1",
  "contractName": "ResourceMarketplace",
  "sourceName": "contracts/core/ResourceMarketplace.sol",
  "abi": [
    {
      "inputs": [
        {
          "internalType": "address",
          "name": "_escrowManager",
          "type": "address"
        },
        {
          "internalType": "address",
          "name": "_slaEnforcement",
          "type": "address"
        }
      ],
      "stateMutability": "nonpayable",
      "type": "constructor"
    },
    {
      "anonymous": false,
      "inputs": [
        {
          "indexed": true,
          "internalType": "uint256",
          "name": "bookingId",
          "type": "uint256"
        },
        {
          "indexed": true,
          "internalType": "uint256",
          "name": "resourceId",
          "type": "uint256"
        }
      ],
      "name": "BookingCancelled",
      "type": "event"
    },
    {
      "anonymous": false,
      "inputs": [
        {
          "indexed": true,
          "internalType": "uint256",
          "name": "bookingId",
          "type": "uint256"
        },
        {
          "indexed": true,
          "internalType": "uint256",
          "name": "resourceId",
          "type": "uint256"
        }
      ],
      "name": "BookingCompleted",
      "type": "event"
    },
    {
      "anonymous": false,
      "inputs": [
        {
          "indexed": true,
          "internalType": "address",
          "name": "previousOwner",
          "type": "address"
        },
        {
          "indexed": true,
          "internalType": "address",
          "name": "newOwner",
          "type": "address"
        }
      ],
      "name": "OwnershipTransferred",
      "type": "event"
    },
    {
      "anonymous": false,
      "inputs": [
        {
          "indexed": true,
          "internalType": "uint256",
          "name": "resourceId",
          "type": "uint256"
        },
        {
          "indexed": true,
          "internalType": "address",
          "name": "consumer",
          "type": "address"
        },
        {
          "indexed": false,
          "internalType": "uint256",
          "name": "duration",
          "type": "uint256"
        }
      ],
      "name": "ResourceBooked",
      "type": "event"
    },
    {
      "anonymous": false,
      "inputs": [
        {
          "indexed": true,
          "internalType": "uint256",
          "name": "resourceId",
          "type": "uint256"
        },
        {
          "indexed": true,
          "internalType": "address",
          "name": "provider",
          "type": "address"
        },
        {
          "indexed": false,
          "internalType": "uint256",
          "name": "pricePerHour",
          "type": "uint256"
        }
      ],
      "name": "ResourceListed",
      "type": "event"
    },
    {
      "anonymous": false,
      "inputs": [
        {
          "indexed": true,
          "internalType": "uint256",
          "name": "resourceId",
          "type": "uint256"
        },
        {
          "indexed": false,
          "internalType": "uint256",
          "name": "newPrice",
          "type": "uint256"
        },
        {
          "indexed": false,
          "internalType": "bool",
          "name": "isActive",
          "type": "bool"
        }
      ],
      "name": "ResourceUpdated",
      "type": "event"
    },
    {
      "inputs": [
        {
          "internalType": "uint256",
          "name": "_resourceId",
          "type": "uint256"
        },
        {
          "internalType": "uint256",
          "name": "_duration",
          "type": "uint256"
        }
      ],
      "name": "bookResource",
      "outputs": [],
      "stateMutability": "payable",
      "type": "function"
    },
    {
      "inputs": [],
      "name": "bookingCounter",
      "outputs": [
        {
          "internalType": "uint256",
          "name": "",
          "type": "uint256"
        }
      ],
      "stateMutability": "view",
      "type": "function"
    },
    {
      "inputs": [
        {
          "internalType": "uint256",
          "name": "",
          "type": "uint256"
        }
      ],
      "name": "bookings",
      "outputs": [
        {
          "internalType": "uint256",
          "name": "resourceId",
          "type": "uint256"
        },
        {
          "internalType": "address",
          "name": "consumer",
          "type": "address"
        },
        {
          "internalType": "uint256",
          "name": "startTime",
          "type": "uint256"
        },
        {
          "internalType": "uint256",
          "name": "duration",
          "type": "uint256"
        },
        {
          "internalType": "uint256",
          "name": "escrowId",
          "type": "uint256"
        },
        {
          "internalType": "bool",
          "name": "isActive",
          "type": "bool"
        }
      ],
      "stateMutability": "view",
      "type": "function"
    },
    {
      "inputs": [
        {
          "internalType": "uint256",
          "name": "_bookingId",
          "type": "uint256"
        }
      ],
      "name": "completeBooking",
      "outputs": [],
      "stateMutability": "nonpayable",
      "type": "function"
    },
    {
      "inputs": [
        {
          "internalType": "uint256",
          "name": "_resourceId",
          "type": "uint256"
        }
      ],
      "name": "deactivateResource",
      "outputs": [],
      "stateMutability": "nonpayable",
      "type": "function"
    },
    {
      "inputs": [],
      "name": "escrowManager",
      "outputs": [
        {
          "internalType": "contract EscrowManager",
          "name": "",
          "type": "address"
        }
      ],
      "stateMutability": "view",
      "type": "function"
    },
    {
      "inputs": [
        {
          "internalType": "uint256",
          "name": "_resourceId",
          "type": "uint256"
        }
      ],
      "name": "getResource",
      "outputs": [
        {
          "internalType": "address",
          "name": "provider",
          "type": "address"
        },
        {
          "internalType": "string",
          "name": "resourceType",
          "type": "string"
        },
        {
          "internalType": "uint256",
          "name": "cpu",
          "type": "uint256"
        },
        {
          "internalType": "uint256",
          "name": "ram",
          "type": "uint256"
        },
        {
          "internalType": "uint256",
          "name": "storageSize",
          "type": "uint256"
        },
        {
          "internalType": "uint256",
          "name": "pricePerHour",
          "type": "uint256"
        },
        {
          "internalType": "bool",
          "name": "isActive",
          "type": "bool"
        },
        {
          "internalType": "uint256",
          "name": "reputation",
          "type": "uint256"
        }
      ],
      "stateMutability": "view",
      "type": "function"
    },
    {
      "inputs": [
        {
          "internalType": "string",
          "name": "_resourceType",
          "type": "string"
        },
        {
          "internalType": "uint256",
          "name": "_cpu",
          "type": "uint256"
        },
        {
          "internalType": "uint256",
          "name": "_ram",
          "type": "uint256"
        },
        {
          "internalType": "uint256",
          "name": "_storage",
          "type": "uint256"
        },
        {
          "internalType": "uint256",
          "name": "_pricePerHour",
          "type": "uint256"
        },
        {
          "internalType": "string",
          "name": "_metadata",
          "type": "string"
        }
      ],
      "name": "listResource",
      "outputs": [
        {
          "internalType": "uint256",
          "name": "",
          "type": "uint256"
        }
      ],
      "stateMutability": "nonpayable",
      "type": "function"
    },
    {
      "inputs": [],
      "name": "owner",
      "outputs": [
        {
          "internalType": "address",
          "name": "",
          "type": "address"
        }
      ],
      "stateMutability": "view",
      "type": "function"
    },
    {
      "inputs": [],
      "name": "platformFee",
      "outputs": [
        {
          "internalType": "uint256",
          "name": "",
          "type": "uint256"
        }
      ],
      "stateMutability": "view",
      "type": "function"
    },
    {
      "inputs": [],
      "name": "renounceOwnership",
      "outputs": [],
      "stateMutability": "nonpayable",
      "type": "function"
    },
    {
      "inputs": [],
      "name": "resourceCounter",
      "outputs": [
        {
          "internalType": "uint256",
          "name": "",
          "type": "uint256"
        }
      ],
      "stateMutability": "view",
      "type": "function"
    },
    {
      "inputs": [
        {
          "internalType": "uint256",
          "name": "",
          "type": "uint256"
        }
      ],
      "name": "resources",
      "outputs": [
        {
          "internalType": "uint256",
          "name": "id",
          "type": "uint256"
        },
        {
          "internalType": "address",
          "name": "provider",
          "type": "address"
        },
        {
          "internalType": "string",
          "name": "resourceType",
          "type": "string"
        },
        {
          "internalType": "uint256",
          "name": "cpu",
          "type": "uint256"
        },
        {
          "internalType": "uint256",
          "name": "ram",
          "type": "uint256"
        },
        {
          "internalType": "uint256",
          "name": "storageSize",
          "type": "uint256"
        },
        {
          "internalType": "uint256",
          "name": "pricePerHour",
          "type": "uint256"
        },
        {
          "internalType": "bool",
          "name": "isActive",
          "type": "bool"
        },
        {
          "internalType": "uint256",
          "name": "reputation",
          "type": "uint256"
        },
        {
          "internalType": "string",
          "name": "metadata",
          "type": "string"
        }
      ],
      "stateMutability": "view",
      "type": "function"
    },
    {
      "inputs": [],
      "name": "slaEnforcement",
      "outputs": [
        {
          "internalType": "contract SLAEnforcement",
          "name": "",
          "type": "address"
        }
      ],
      "stateMutability": "view",
      "type": "function"
    },
    {
      "inputs": [
        {
          "internalType": "address",
          "name": "newOwner",
          "type": "address"
        }
      ],
      "name": "transferOwnership",
      "outputs": [],
      "stateMutability": "nonpayable",
      "type": "function"
    },
    {
      "inputs": [
        {
          "internalType": "uint256",
          "name": "_newFee",
          "type": "uint256"
        }
      ],
      "name": "updatePlatformFee",
      "outputs": [],
      "stateMutability": "nonpayable",
      "type": "function"
    },
    {
      "inputs": [
        {
          "internalType": "uint256",
          "name": "_resourceId",
          "type": "uint256"
        },
        {
          "internalType": "uint256",
          "name": "_newPrice",
          "type": "uint256"
        }
      ],
      "name": "updateResourcePrice",
      "outputs": [],
      "stateMutability": "nonpayable",
      "type": "function"
    },
    {
      "stateMutability": "payable",
      "type": "receive"
    }
  ],
  "bytecode": "0x608060405260196006553480156200001657600080fd5b506040516200199e3803806200199e8339810160408190526200003991620000ea565b600160005562000049336200007b565b600780546001600160a01b039384166001600160a01b0319918216179091556008805492909316911617905562000122565b600180546001600160a01b038381166001600160a01b0319831681179093556040519116919082907f8be0079c531659141344cd1fd0a4f28419497f9722a3daafe3b4186f6b6457e090600090a35050565b80516001600160a01b0381168114620000e557600080fd5b919050565b60008060408385031215620000fe57600080fd5b6200010983620000cd565b91506200011960208401620000cd565b90509250929050565b61186c80620001326000396000f3fe6080604052600436106101025760003560e01c80638da5cb5b11610095578063c12255c411610064578063c12255c41461032e578063d287ac421461034e578063d309737b14610364578063e28d311314610384578063f2fde38b146103a457600080fd5b80638da5cb5b146102bd578063aa0b5988146102db578063af2ca19c146102fb578063b412a7491461030e57600080fd5b8063244d6daa116100d1578063244d6daa1461022457806326232a2e1461025a578063715018a6146102705780638ce5c2101461028557600080fd5b80630789bf9a1461010e5780631a2b3431146101375780631dab301e146101595780631e8fca2d146101f057600080fd5b3661010957005b600080fd5b34801561011a57600080fd5b5061012460045481565b6040519081526020015b60405180910390f35b34801561014357600080fd5b506101576101523660046113b7565b6103c4565b005b34801561016557600080fd5b506101b96101743660046113b7565b600360208190526000918252604090912080546001820154600283015493830154600484015460059094015492946001600160a01b0390921693919290919060ff1686565b604080519687526001600160a01b0390951660208701529385019290925260608401526080830152151560a082015260c00161012e565b3480156101fc57600080fd5b5061021061020b3660046113b7565b610547565b60405161012e989796959493929190611416565b34801561023057600080fd5b5061024461023f3660046113b7565b61075e565b60405161012e9a99989796959493929190611470565b34801561026657600080fd5b5061012460065481565b34801561027c57600080fd5b506101576108d3565b34801561029157600080fd5b506008546102a5906001600160a01b031681565b6040516001600160a01b03909116815260200161012e565b3480156102c957600080fd5b506001546001600160a01b03166102a5565b3480156102e757600080fd5b506101576102f63660046113b7565b6108e7565b6101576103093660046114e8565b61093c565b34801561031a57600080fd5b506101246103293660046115ad565b610c2b565b34801561033a57600080fd5b506007546102a5906001600160a01b031681565b34801561035a57600080fd5b5061012460055481565b34801561037057600080fd5b5061015761037f3660046114e8565b610ed6565b34801561039057600080fd5b5061015761039f3660046113b7565b610fe1565b3480156103b057600080fd5b506101576103bf366004611636565b61109b565b6103cc611111565b6000818152600360205260409020600581015460ff1661042b5760405162461bcd60e51b8152602060048201526015602482015274426f6f6b696e67206973206e6f742061637469766560581b60448201526064015b60405180910390fd5b6000828152600360205260409020600101546001600160a01b0316331461049f5760405162461bcd60e51b815260206004820152602260248201527f4f6e6c7920636f6e73756d65722063616e20636f6d706c65746520626f6f6b696044820152616e6760f01b6064820152608401610422565b600754600482810154604051633b594c5960e21b8152918201526001600160a01b039091169063ed65316490602401600060405180830381600087803b1580156104e857600080fd5b505af11580156104fc573d6000803e3d6000fd5b50505060058201805460ff1916905550805460405183907f7c216d827663830a8eaf435519e88ebb0b1c00dccaf021972073a54c9535c3da90600090a3506105446001600055565b50565b600060606000806000806000806000600260008b815260200190815260200160002060405180610140016040529081600082015481526020016001820160009054906101000a90046001600160a01b03166001600160a01b03166001600160a01b031681526020016002820180546105be9061165f565b80601f01602080910402602001604051908101604052809291908181526020018280546105ea9061165f565b80156106375780601f1061060c57610100808354040283529160200191610637565b820191906000526020600020905b81548152906001019060200180831161061a57829003601f168201915b505050918352505060038201546020820152600482015460408201526005820154606082015260068201546080820152600782015460ff16151560a0820152600882015460c082015260098201805460e0909201916106959061165f565b80601f01602080910402602001604051908101604052809291908181526020018280546106c19061165f565b801561070e5780601f106106e35761010080835404028352916020019161070e565b820191906000526020600020905b8154815290600101906020018083116106f157829003601f168201915b505050505081525050905080602001518160400151826060015183608001518460a001518560c001518660e001518761010001519850985098509850985098509850985050919395975091939597565b600260208190526000918252604090912080546001820154928201805491936001600160a01b031692916107919061165f565b80601f01602080910402602001604051908101604052809291908181526020018280546107bd9061165f565b801561080a5780601f106107df5761010080835404028352916020019161080a565b820191906000526020600020905b8154815290600101906020018083116107ed57829003601f168201915b5050505050908060030154908060040154908060050154908060060154908060070160009054906101000a900460ff16908060080154908060090180546108509061165f565b80601f016020809104026020016040519081016040528092919081815260200182805461087c9061165f565b80156108c95780601f1061089e576101008083540402835291602001916108c9565b820191906000526020600020905b8154815290600101906020018083116108ac57829003601f168201915b505050505090508a565b6108db61116a565b6108e560006111c4565b565b6108ef61116a565b60328111156109375760405162461bcd60e51b81526020600482015260146024820152734665652063616e6e6f742065786365656420352560601b6044820152606401610422565b600655565b610944611111565b6000828152600260205260409020600781015460ff1661099f5760405162461bcd60e51b81526020600482015260166024820152755265736f75726365206973206e6f742061637469766560501b6044820152606401610422565b600082116109ef5760405162461bcd60e51b815260206004820152601f60248201527f4475726174696f6e206d7573742062652067726561746572207468616e2030006044820152606401610422565b6006810154600090610a019084611216565b90506000610a266103e8610a206006548561121690919063ffffffff16565b906112a1565b90506000610a3483836112fc565b905082341015610a7d5760405162461bcd60e51b8152602060048201526014602482015273125b9cdd59999a58da595b9d081c185e5b595b9d60621b6044820152606401610422565b600754600185015460405163230a43a760e11b81526001600160a01b039182166004820152602481018890526000929190911690634614874e90849060440160206040518083038185885af1158015610ada573d6000803e3d6000fd5b50505050506040513d601f19601f82011682018060405250810190610aff9190611699565b600554909150610b10906001611358565b60058181556040805160c0810182528a815233602080830191825242838501908152606084018d815260808501898152600160a0870181815260009a8b526003958690529790992095518655935185890180546001600160a01b0319166001600160a01b039283161790559151600286015551918401919091559051600483015591519201805460ff1916921515929092179091559054166001600160a01b03166108fc849081150290604051600060405180830381858888f19350505050158015610be0573d6000803e3d6000fd5b50604051868152339088907f7d78d5ba1dd02eec8132306da14ba5fdbd9efd34dc428300bdb06ef456d146ae9060200160405180910390a35050505050610c276001600055565b5050565b6000610c35611111565b60008611610c855760405162461bcd60e51b815260206004820152601a60248201527f435055206d7573742062652067726561746572207468616e20300000000000006044820152606401610422565b60008511610cd55760405162461bcd60e51b815260206004820152601a60248201527f52414d206d7573742062652067726561746572207468616e20300000000000006044820152606401610422565b60008411610d255760405162461bcd60e51b815260206004820152601e60248201527f53746f72616765206d7573742062652067726561746572207468616e203000006044820152606401610422565b60008311610d755760405162461bcd60e51b815260206004820152601c60248201527f5072696365206d7573742062652067726561746572207468616e2030000000006044820152606401610422565b600454610d83906001611358565b600481905560408051610140810182528281523360208083019182528284018c8152606084018c9052608084018b905260a084018a905260c08401899052600160e085018190526064610100860152610120850189905260009687526002928390529490952083518155915193820180546001600160a01b0319166001600160a01b03909516949094179093559251909291820190610e229082611701565b50606082015160038201556080820151600482015560a0820151600582015560c0820151600682015560e082015160078201805460ff191691151591909117905561010082015160088201556101208201516009820190610e839082611701565b50506004546040518581523392507f4784d0ec7b281996d27e2532c474fbc6992bd8df862ddb0c9d8bfa5917041ee99060200160405180910390a350600454610ecc6001600055565b9695505050505050565b600082815260026020526040902060018101546001600160a01b03163314610f405760405162461bcd60e51b815260206004820152601e60248201527f4f6e6c792070726f76696465722063616e2075706461746520707269636500006044820152606401610422565b60008211610f905760405162461bcd60e51b815260206004820152601c60248201527f5072696365206d7573742062652067726561746572207468616e2030000000006044820152606401610422565b6006810182905560078101546040805184815260ff9092161515602083015284917f5b10d18d80d43ed1de66432b872f04ed58d977c6a1e955b0e3de65448ac68c6f910160405180910390a2505050565b600081815260026020526040902060018101546001600160a01b0316331461104b5760405162461bcd60e51b815260206004820152601c60248201527f4f6e6c792070726f76696465722063616e2064656163746976617465000000006044820152606401610422565b60078101805460ff191690556006810154604080519182526000602083015283917f5b10d18d80d43ed1de66432b872f04ed58d977c6a1e955b0e3de65448ac68c6f910160405180910390a25050565b6110a361116a565b6001600160a01b0381166111085760405162461bcd60e51b815260206004820152602660248201527f4f776e61626c653a206e6577206f776e657220697320746865207a65726f206160448201526564647265737360d01b6064820152608401610422565b610544816111c4565b6002600054036111635760405162461bcd60e51b815260206004820152601f60248201527f5265656e7472616e637947756172643a207265656e7472616e742063616c6c006044820152606401610422565b6002600055565b6001546001600160a01b031633146108e55760405162461bcd60e51b815260206004820181905260248201527f4f776e61626c653a2063616c6c6572206973206e6f7420746865206f776e65726044820152606401610422565b600180546001600160a01b038381166001600160a01b0319831681179093556040519116919082907f8be0079c531659141344cd1fd0a4f28419497f9722a3daafe3b4186f6b6457e090600090a35050565b6000826000036112285750600061129b565b600061123483856117d7565b90508261124185836117ee565b146112985760405162461bcd60e51b815260206004820152602160248201527f536166654d6174683a206d756c7469706c69636174696f6e206f766572666c6f6044820152607760f81b6064820152608401610422565b90505b92915050565b60008082116112f25760405162461bcd60e51b815260206004820152601a60248201527f536166654d6174683a206469766973696f6e206279207a65726f0000000000006044820152606401610422565b61129882846117ee565b60008282111561134e5760405162461bcd60e51b815260206004820152601e60248201527f536166654d6174683a207375627472616374696f6e206f766572666c6f7700006044820152606401610422565b6112988284611810565b6000806113658385611823565b9050838110156112985760405162461bcd60e51b815260206004820152601b60248201527f536166654d6174683a206164646974696f6e206f766572666c6f7700000000006044820152606401610422565b6000602082840312156113c957600080fd5b5035919050565b6000815180845260005b818110156113f6576020818501810151868301820152016113da565b506000602082860101526020601f19601f83011685010191505092915050565b6001600160a01b03891681526101006020820181905260009061143b8382018b6113d0565b604084019990995250506060810195909552608085019390935260a0840191909152151560c083015260e09091015292915050565b8a81526001600160a01b038a1660208201526101406040820181905260009061149b8382018c6113d0565b90508960608401528860808401528760a08401528660c084015285151560e0840152846101008401528281036101208401526114d781856113d0565b9d9c50505050505050505050505050565b600080604083850312156114fb57600080fd5b50508035926020909101359150565b634e487b7160e01b600052604160045260246000fd5b600082601f83011261153157600080fd5b813567ffffffffffffffff8082111561154c5761154c61150a565b604051601f8301601f19908116603f011681019082821181831017156115745761157461150a565b8160405283815286602085880101111561158d57600080fd5b836020870160208301376000602085830101528094505050505092915050565b60008060008060008060c087890312156115c657600080fd5b863567ffffffffffffffff808211156115de57600080fd5b6115ea8a838b01611520565b97506020890135965060408901359550606089013594506080890135935060a089013591508082111561161c57600080fd5b5061162989828a01611520565b9150509295509295509295565b60006020828403121561164857600080fd5b81356001600160a01b038116811461129857600080fd5b600181811c9082168061167357607f821691505b60208210810361169357634e487b7160e01b600052602260045260246000fd5b50919050565b6000602082840312156116ab57600080fd5b5051919050565b601f8211156116fc57600081815260208120601f850160051c810160208610156116d95750805b601f850160051c820191505b818110156116f8578281556001016116e5565b5050505b505050565b815167ffffffffffffffff81111561171b5761171b61150a565b61172f81611729845461165f565b846116b2565b602080601f831160018114611764576000841561174c5750858301515b600019600386901b1c1916600185901b1785556116f8565b600085815260208120601f198616915b8281101561179357888601518255948401946001909101908401611774565b50858210156117b15787850151600019600388901b60f8161c191681555b5050505050600190811b01905550565b634e487b7160e01b600052601160045260246000fd5b808202811582820484141761129b5761129b6117c1565b60008261180b57634e487b7160e01b600052601260045260246000fd5b500490565b8181038181111561129b5761129b6117c1565b8082018082111561129b5761129b6117c156fea26469706673582212203a8258caad311e551353aea5ae2cbccbf45821da544f1aa6ee9ee5d08bb5af5b64736f6c63430008140033",
  "linkReferences": {},
  "deployedLinkReferences": {}
}