{
  "_format": "hh-sol-artifact-1",
  "contractName": "SLAEnforcement",
  "sourceName": "contracts/core/SLAEnforcement.sol",
  "abi": [
    {
      "anonymous": false,
      "inputs": [
        {
          "indexed": true,
          "internalType": "address",
          "name": "previousOwner",
          "type": "address"
        },
        {
          "indexed": true,
          "internalType": "address",
          "name": "newOwner",
          "type": "address"
        }
      ],
      "name": "OwnershipTransferred",
      "type": "event"
    },
    {
      "anonymous": false,
      "inputs": [
        {
          "indexed": true,
          "internalType": "uint256",
          "name": "slaId",
          "type": "uint256"
        },
        {
          "indexed": false,
          "internalType": "uint256",
          "name": "amount",
          "type": "uint256"
        }
      ],
      "name": "PenaltyPaid",
      "type": "event"
    },
    {
      "anonymous": false,
      "inputs": [
        {
          "indexed": true,
          "internalType": "uint256",
          "name": "slaId",
          "type": "uint256"
        },
        {
          "indexed": true,
          "internalType": "uint256",
          "name": "resourceId",
          "type": "uint256"
        }
      ],
      "name": "SLACreated",
      "type": "event"
    },
    {
      "anonymous": false,
      "inputs": [
        {
          "indexed": true,
          "internalType": "uint256",
          "name": "slaId",
          "type": "uint256"
        },
        {
          "indexed": false,
          "internalType": "string",
          "name": "violationType",
          "type": "string"
        },
        {
          "indexed": false,
          "internalType": "uint256",
          "name": "penaltyAmount",
          "type": "uint256"
        }
      ],
      "name": "SLAViolation",
      "type": "event"
    },
    {
      "inputs": [
        {
          "internalType": "uint256",
          "name": "_slaId",
          "type": "uint256"
        },
        {
          "internalType": "uint256",
          "name": "_measuredValue",
          "type": "uint256"
        }
      ],
      "name": "calculatePenalty",
      "outputs": [
        {
          "internalType": "uint256",
          "name": "",
          "type": "uint256"
        }
      ],
      "stateMutability": "view",
      "type": "function"
    },
    {
      "inputs": [
        {
          "internalType": "uint256",
          "name": "_resourceId",
          "type": "uint256"
        },
        {
          "internalType": "uint256",
          "name": "_uptime",
          "type": "uint256"
        },
        {
          "internalType": "uint256",
          "name": "_latency",
          "type": "uint256"
        },
        {
          "internalType": "uint256",
          "name": "_penalty",
          "type": "uint256"
        }
      ],
      "name": "createSLA",
      "outputs": [
        {
          "internalType": "uint256",
          "name": "",
          "type": "uint256"
        }
      ],
      "stateMutability": "nonpayable",
      "type": "function"
    },
    {
      "inputs": [
        {
          "internalType": "uint256",
          "name": "_slaId",
          "type": "uint256"
        }
      ],
      "name": "deactivateSLA",
      "outputs": [],
      "stateMutability": "nonpayable",
      "type": "function"
    },
    {
      "inputs": [
        {
          "internalType": "uint256",
          "name": "_slaId",
          "type": "uint256"
        }
      ],
      "name": "getSLA",
      "outputs": [
        {
          "internalType": "uint256",
          "name": "resourceId",
          "type": "uint256"
        },
        {
          "internalType": "uint256",
          "name": "uptime",
          "type": "uint256"
        },
        {
          "internalType": "uint256",
          "name": "latency",
          "type": "uint256"
        },
        {
          "internalType": "uint256",
          "name": "penalty",
          "type": "uint256"
        },
        {
          "internalType": "bool",
          "name": "isActive",
          "type": "bool"
        }
      ],
      "stateMutability": "view",
      "type": "function"
    },
    {
      "inputs": [
        {
          "internalType": "uint256",
          "name": "_slaId",
          "type": "uint256"
        }
      ],
      "name": "getViolationsCount",
      "outputs": [
        {
          "internalType": "uint256",
          "name": "",
          "type": "uint256"
        }
      ],
      "stateMutability": "view",
      "type": "function"
    },
    {
      "inputs": [],
      "name": "owner",
      "outputs": [
        {
          "internalType": "address",
          "name": "",
          "type": "address"
        }
      ],
      "stateMutability": "view",
      "type": "function"
    },
    {
      "inputs": [
        {
          "internalType": "uint256",
          "name": "_slaId",
          "type": "uint256"
        },
        {
          "internalType": "string",
          "name": "_violationType",
          "type": "string"
        },
        {
          "internalType": "uint256",
          "name": "_measuredValue",
          "type": "uint256"
        }
      ],
      "name": "recordViolation",
      "outputs": [],
      "stateMutability": "nonpayable",
      "type": "function"
    },
    {
      "inputs": [],
      "name": "renounceOwnership",
      "outputs": [],
      "stateMutability": "nonpayable",
      "type": "function"
    },
    {
      "inputs": [],
      "name": "slaCounter",
      "outputs": [
        {
          "internalType": "uint256",
          "name": "",
          "type": "uint256"
        }
      ],
      "stateMutability": "view",
      "type": "function"
    },
    {
      "inputs": [
        {
          "internalType": "uint256",
          "name": "",
          "type": "uint256"
        }
      ],
      "name": "slas",
      "outputs": [
        {
          "internalType": "uint256",
          "name": "id",
          "type": "uint256"
        },
        {
          "internalType": "uint256",
          "name": "resourceId",
          "type": "uint256"
        },
        {
          "internalType": "uint256",
          "name": "uptime",
          "type": "uint256"
        },
        {
          "internalType": "uint256",
          "name": "latency",
          "type": "uint256"
        },
        {
          "internalType": "uint256",
          "name": "penalty",
          "type": "uint256"
        },
        {
          "internalType": "bool",
          "name": "isActive",
          "type": "bool"
        }
      ],
      "stateMutability": "view",
      "type": "function"
    },
    {
      "inputs": [
        {
          "internalType": "address",
          "name": "newOwner",
          "type": "address"
        }
      ],
      "name": "transferOwnership",
      "outputs": [],
      "stateMutability": "nonpayable",
      "type": "function"
    },
    {
      "inputs": [
        {
          "internalType": "uint256",
          "name": "",
          "type": "uint256"
        },
        {
          "internalType": "uint256",
          "name": "",
          "type": "uint256"
        }
      ],
      "name": "violations",
      "outputs": [
        {
          "internalType": "uint256",
          "name": "slaId",
          "type": "uint256"
        },
        {
          "internalType": "uint256",
          "name": "timestamp",
          "type": "uint256"
        },
        {
          "internalType": "string",
          "name": "violationType",
          "type": "string"
        },
        {
          "internalType": "uint256",
          "name": "measuredValue",
          "type": "uint256"
        },
        {
          "internalType": "uint256",
          "name": "penaltyAmount",
          "type": "uint256"
        }
      ],
      "stateMutability": "view",
      "type": "function"
    }
  ],
  "bytecode": "0x608060405234801561001057600080fd5b50600160005561001f33610024565b610076565b600180546001600160a01b038381166001600160a01b0319831681179093556040519116919082907f8be0079c531659141344cd1fd0a4f28419497f9722a3daafe3b4186f6b6457e090600090a35050565b610d4b806100856000396000f3fe608060405234801561001057600080fd5b50600436106100b45760003560e01c80639cf83593116100715780639cf83593146101a15780639fc31187146101aa578063bf7792d2146101ca578063c16e182f14610268578063c8e1a3781461028c578063f2fde38b1461029f57600080fd5b806309981644146100b9578063126c0d8e146100ce5780632bb2d3d7146100e15780633e7932321461015d578063715018a61461017e5780638da5cb5b14610186575b600080fd5b6100cc6100c73660046109a0565b6102b2565b005b6100cc6100dc3660046109cf565b61032f565b6101296100ef3660046109a0565b6002602081905260009182526040909120805460018201549282015460038301546004840154600590940154929493919290919060ff1686565b6040805196875260208701959095529385019290925260608401526080830152151560a082015260c0015b60405180910390f35b61017061016b366004610a93565b61046b565b604051908152602001610154565b6100cc6105c3565b6001546040516001600160a01b039091168152602001610154565b61017060045481565b6101706101b83660046109a0565b60009081526003602052604090205490565b61023e6101d83660046109a0565b600090815260026020818152604092839020835160c0810185528154815260018201549281018390529281015493830184905260038101546060840181905260048201546080850181905260059092015460ff16151560a0909401849052919491929091565b6040805195865260208601949094529284019190915260608301521515608082015260a001610154565b61027b610276366004610a93565b6105d7565b604051610154959493929190610afb565b61017061029a366004610b2e565b6106b2565b6100cc6102ad366004610b60565b610815565b6102ba61088e565b60008181526002602052604090206005015460ff166103145760405162461bcd60e51b8152602060048201526011602482015270534c41206973206e6f742061637469766560781b60448201526064015b60405180910390fd5b6000908152600260205260409020600501805460ff19169055565b61033761088e565b60008381526002602052604090206005015460ff1661038c5760405162461bcd60e51b8152602060048201526011602482015270534c41206973206e6f742061637469766560781b604482015260640161030b565b6000838152600260205260408120906103a5858461046b565b6000868152600360209081526040808320815160a0810183528a8152428185019081529281018a8152606082018a9052608082018790528254600181810185559387529490952081516005909502019384559151908301559151929350909160028201906104139082610c12565b5060608201518160030155608082015181600401555050847fb247761b9e8f141ac4019ed33171d98e180678440fc796ab5b789ab030686936858360405161045c929190610cd2565b60405180910390a25050505050565b6000828152600260208181526040808420815160c08101835281548152600182015481850152938101548483015260038101546060850152600481015460808501526005015460ff16151560a0840152516104d3910165757074696d6560d01b815260060190565b604051602081830303815290604052805190602001206040516020016105059065757074696d6560d01b815260060190565b604051602081830303815290604052805190602001200361053c578060400151831015610537576080015190506105bd565b6105b7565b604051666c6174656e637960c81b60208201526027016040516020818303038152906040528051906020012060405160200161058590666c6174656e637960c81b815260070190565b60405160208183030381529060405280519060200120036105b75780606001518311156105b7576080015190506105bd565b60009150505b92915050565b6105cb61088e565b6105d560006108e8565b565b600360205281600052604060002081815481106105f357600080fd5b90600052602060002090600502016000915091505080600001549080600101549080600201805461062390610b89565b80601f016020809104026020016040519081016040528092919081815260200182805461064f90610b89565b801561069c5780601f106106715761010080835404028352916020019161069c565b820191906000526020600020905b81548152906001019060200180831161067f57829003601f168201915b5050505050908060030154908060040154905085565b60006103e88411156107065760405162461bcd60e51b815260206004820152601960248201527f557074696d652063616e6e6f7420657863656564203130302500000000000000604482015260640161030b565b6103e88211156107585760405162461bcd60e51b815260206004820152601a60248201527f50656e616c74792063616e6e6f74206578636565642031303025000000000000604482015260640161030b565b60045461076690600161093a565b60048181556040805160c08101825283815260208082018a81528284018a8152606084018a8152608085018a8152600160a0870181815260009a8b52600296879052888b209751885594519087015591519385019390935591516003840155905182850155516005909101805460ff19169115159190911790559054905187927fa9da80aeda0ec3ac7e5c1243059bb517ce41b2e0eda71826d6c165cef5d11f5d91a350600454949350505050565b61081d61088e565b6001600160a01b0381166108825760405162461bcd60e51b815260206004820152602660248201527f4f776e61626c653a206e6577206f776e657220697320746865207a65726f206160448201526564647265737360d01b606482015260840161030b565b61088b816108e8565b50565b6001546001600160a01b031633146105d55760405162461bcd60e51b815260206004820181905260248201527f4f776e61626c653a2063616c6c6572206973206e6f7420746865206f776e6572604482015260640161030b565b600180546001600160a01b038381166001600160a01b0319831681179093556040519116919082907f8be0079c531659141344cd1fd0a4f28419497f9722a3daafe3b4186f6b6457e090600090a35050565b6000806109478385610cf4565b9050838110156109995760405162461bcd60e51b815260206004820152601b60248201527f536166654d6174683a206164646974696f6e206f766572666c6f770000000000604482015260640161030b565b9392505050565b6000602082840312156109b257600080fd5b5035919050565b634e487b7160e01b600052604160045260246000fd5b6000806000606084860312156109e457600080fd5b83359250602084013567ffffffffffffffff80821115610a0357600080fd5b818601915086601f830112610a1757600080fd5b813581811115610a2957610a296109b9565b604051601f8201601f19908116603f01168101908382118183101715610a5157610a516109b9565b81604052828152896020848701011115610a6a57600080fd5b826020860160208301376000602084830101528096505050505050604084013590509250925092565b60008060408385031215610aa657600080fd5b50508035926020909101359150565b6000815180845260005b81811015610adb57602081850181015186830182015201610abf565b506000602082860101526020601f19601f83011685010191505092915050565b85815284602082015260a060408201526000610b1a60a0830186610ab5565b606083019490945250608001529392505050565b60008060008060808587031215610b4457600080fd5b5050823594602084013594506040840135936060013592509050565b600060208284031215610b7257600080fd5b81356001600160a01b038116811461099957600080fd5b600181811c90821680610b9d57607f821691505b602082108103610bbd57634e487b7160e01b600052602260045260246000fd5b50919050565b601f821115610c0d57600081815260208120601f850160051c81016020861015610bea5750805b601f850160051c820191505b81811015610c0957828155600101610bf6565b5050505b505050565b815167ffffffffffffffff811115610c2c57610c2c6109b9565b610c4081610c3a8454610b89565b84610bc3565b602080601f831160018114610c755760008415610c5d5750858301515b600019600386901b1c1916600185901b178555610c09565b600085815260208120601f198616915b82811015610ca457888601518255948401946001909101908401610c85565b5085821015610cc25787850151600019600388901b60f8161c191681555b5050505050600190811b01905550565b604081526000610ce56040830185610ab5565b90508260208301529392505050565b808201808211156105bd57634e487b7160e01b600052601160045260246000fdfea2646970667358221220d5cb878e74a9e1b0990eb9a8db6acc523a7ebd8f8b64c7d24ca59c20cc645af164736f6c63430008140033",
  "linkReferences": {},
  "deployedLinkReferences": {}
}